:020000041000EA
:10000000002008205D0100101B0100101D010010E0
:100010001101001011010010110100101101001058
:100020001901001019010010190100101F01001022
:10003000110100101901001021010010230100100E
:100040001101001011010010110100101101001028
:100050001101001011010010110100101101001018
:100060001101001011010010110100101101001008
:1000700011010010110100101101001011010010F8
:1000800011010010110100101101001011010010E8
:1000900011010010110100101101001011010010D8
:1000A00011010010110100101101001011010010C8
:1000B00011010010110100101101001011010010B8
:1000C00011010010110100101101001011010010A8
:1000D0001101001011010010110100101101001098
:1000E0001101001011010010110100101101001088
:1000F0001101001011010010110100101101001078
:100100001101001011010010110100101101001067
:10011000EFF30580103800BE00BE00BE00BE00BE7A
:1001200000BE00BEF2EB88716463001084630010AF
:10013000A001001090A31AE7D3DEFFFF42012110B7
:10014000FF010000FC6C0000793512AB4FF000009D
:100150001E49086006C881F3088810474FF05040D8
:10016000006810B14FF00000F2E70DA40ECC00299A
:1001700002D000F012F8F9E71549164A002000E015
:1001800001C19142FCD11449884714498847144958
:10019000884700BEFDE701C901C29A42FBD3704700
:1001A0008463001010010020C00B0020346E00108A
:1001B0000000082000000820346E00100010082005
:1001C00000100820000000007047000008ED00E06B
:1001D000C00B0020BCC10420C541001075050010F3
:1001E000BD410010F8B500BF064B0749C91A891078
:1001F00048BF0131491003D0044B0BB101481847E7
:10020000704700BFC00B0020C00B002000000000A2
:1002100008B5054B1BB105490548AFF30080BDE8A3
:100220000840FFF7E1BF00BF000000000C100020F5
:10023000D4510010F0B50368044683B0002B39D0C8
:100240000125244E266015B9012003B0F0BD01F050
:10025000E5FE214DD5E9002390429941F4D34FF0BA
:1002600050431B68012B31D001221C4B1A6001F056
:10027000D5FE0B4601301A4A1A4943F10003C5E97D
:100280000003126809680DF1070001F07FF8D8B18A
:10029000154F9DF807003B68DB6A9847134A1368BF
:1002A0000133B3F5166F0EDD00253B6815609B69C1
:1002B0009847C7E70C4B1B689B6998470120054B83
:1002C000236003B0F0BD13600025BBE7084A13604C
:1002D000CDE700BFA8020010400D00204410002010
:1002E000B40F0020B00F0020B01100200410002037
:1002F0004810002010B5084C2068012806D00020C6
:1003000000F0A0FF01230120236010BD00F09AFF40
:1003100000230120236010BD2C0600202DE9F84F9A
:100320003F4B1F68002F77D13E4BD3F80080B8F1C8
:10033000000F1CD13C4E47463C4CDFF8F49033682C
:1003400011E000233A4D03EB430309EB83032846F6
:100350009B6898472368326801339342236005F114
:100360000C05F0DB1346002B2760EADCFEE7B8F152
:10037000010F01D0BDE8F88F2C4C2B4EDFF8B09068
:10038000DFF8BC802B4DDFF8BCA0D8F80030326815
:100390000133002AC8F80030276000DCFEE7DFF8F0
:1003A00090B02F6001F03AFE2368CAE9000103EB28
:1003B000430309EB83039B68584698472A682368E0
:1003C000012A07D032680133934223600BF10C0BF2
:1003D000DBDAE6E7184951F82320013241F82320FF
:1003E00001F01CFE8E46D4F800B0144BDAF804106D
:1003F00053F83B2003EBCB0CDAF80030D31ADCF8CF
:10040000042062EB01021B180C4842EB0E0240F87C
:100410003B30CCF80420B8E747F00107384700BF6D
:100420004C1000205410002058100020FC0F002019
:10043000601000204410002058110020480D0020BA
:1004400050110020E80D00202DE9F84F3F4B1F68A8
:10045000002F77D13E4BD3F80080B8F1000F1CD1AC
:100460003C4E47463C4CDFF8F490336811E00023E3
:100470003A4D03EB430309EB830328469B689847F7
:100480002368326801339342236005F10C05F0DBE9
:100490001346002B2760EADCFEE7B8F1010F01D01C
:1004A000BDE8F88F2C4C2B4EDFF8B090DFF8BC8005
:1004B0002B4DDFF8BCA0D8F8003032680133002A99
:1004C000C8F80030276000DCFEE7DFF890B02F604E
:1004D00001F0A4FD2368CAE9000103EB430309EB23
:1004E00083039B68584698472A682368012A07D0E7
:1004F00032680133934223600BF10C0BDBDAE6E741
:10050000184951F82320013241F8232001F086FDDB
:100510008E46D4F800B0144BDAF8041053F83B20A0
:1005200003EBCB0CDAF80030D31ADCF8042062EBD2
:1005300001021B180C4842EB0E0240F83B30CCF88D
:100540000420B8E747F00107384700BF50100020EB
:10055000541000205C10002000100020D810002053
:100560004810002080110020980D00205411002018
:10057000F00D002070B58AB0934807AB06AA05A914
:1005800001F086FE18B99049904800F0D5FF904ED2
:10059000DDE90612059801F0B9FD03F0F7FE00F061
:1005A00047F94FF41631304600F0A6F931684FF4A0
:1005B0001632012000F06CFE0346864C1A6B86480A
:1005C000236090472368002103205B6898472368D5
:1005D0000120DB68984723687D201B6A98472368C1
:1005E00001205B6A98470021062308464FF42072D9
:1005F00000F086FB06234FF420720121002000F05A
:100600007FFB06234FF420720221002000F078FBCC
:100610004FF4207206230321002000F071FB2368B1
:10062000012100205B69984723686C481B68984744
:1006300023686B481B689847236868481B6898477D
:10064000236867481B6898472368062100205B6978
:100650009847236863481B68984723680721002050
:100660005B689847236801259B68984700220346EA
:100670005D4907A803F05CFD236807A81B6898473D
:1006800023685A481B68984723680021E8B25B68D2
:10069000984723689B6898472A460346524907A80B
:1006A00003F046FD236807A81B68984723684F4856
:1006B0001B6801359847082DE6D1236807210020E3
:1006C0005B69984723684A4DDB6998474949024668
:1006D00007A803F02DFD236807A81B689847236827
:1006E000002102205B6898474348236830601B6BF9
:1006F00098472368042100205B69984723683F4896
:100700001B6898472368052100205B699847236888
:100710003B481B6898472368062100205B6998477F
:10072000236838481B6898472368072100205B69C5
:100730009847236834481B689847284601F006FC10
:1007400023680026DB699847044601F05DFA4FF400
:100750007A722E4BCDE90165009323B283FB02230D
:1007600001F064FB4FF050431B68012B16D0284A60
:100770001368092B0ADC0C205D1C156000FB03F2DA
:100780002449254C8E500A44C2E901340022234BEF
:100790001A60FFF7C3FD00200AB070BD204A13683D
:1007A000092B05DD00221F4B1A60FFF74DFEF2E713
:1007B0000C205D1C156000FB03F21B49164C8E508B
:1007C0000A44C2E90134EDE7F0490200A4520010E6
:1007D00028060020B0110020B8110020D8510010C8
:1007E0002C5200108052001094520010A0520010A1
:1007F000F80D0020D8520010B8690220EC52001009
:100800002853001064530010A0530010F50200108C
:100810005810002060100020350200104C100020FD
:100820005C10002050100020D810002000000000B4
:10083000F0B52D4E2D4B8BB030462D4900241E6057
:1008400003F02AFE2B4B2146054630461C6003F080
:10085000FFFD0721192000F03DFE0123304619223B
:100860002146009303F092FE26460721204600F021
:1008700031FE4FF0000343EC4440002220460121AA
:10088000013400F045FE0E2CEFD14FF480304FF4D0
:10089000F8314FF440239FED127BCDE9020105961C
:1008A000049302AC0DF1180C2A1DEF0147EA023740
:1008B00094E80F008CE80F000B4E07979CE80F00A0
:1008C00084E80F0023462A46002130468DED047B44
:1008D00003F0A2FE336843F0010333600BB0F0BDB8
:1008E0000000D9003903100400003050B00F002080
:1008F0001C550010B40F00202DE9F04F2DED028B98
:1009000002460B46A04CA1488FB0A1490460204686
:10091000CDE9042303F0C0FD9E498146204603F043
:10092000BBFD9D498046204603F0B6FD9FED928BAE
:100930009A4BDFF878A21968DFF874B2029020466B
:1009400003F086FD2046DAF8001003F081FD204612
:10095000DBF8001003F07CFD4FF4402200218DED08
:10096000068B09F1080709F101033F0347EAC317A2
:100970008A4BCDE90821186806AD0AAE039095E8C8
:100980000F0086E80F000B974FF4C02796E80F0082
:1009900085E80F0006970127DFF818C2062110200E
:1009A000CDF824C000F096FD3B4610220399009735
:1009B000204603F0EBFD4A462B460399204603F000
:1009C0002BFE4FF440224FF4C02008F10D030C928F
:1009D0001B0308EB070243EAC21323F0C04343F0B2
:1009E0008043DAF800900B936D4B06210A9011209A
:1009F0000D9300F06FFD3B461122494600972046BB
:100A000003F0C4FD424633464946204603F004FE47
:100A10004FF4402200218DED068B9FED597BCDE9EF
:100A20000821029ADBF8008002F1080C931C4FEABF
:100A30000C3C4CEAC31C95E80F0086E80F00CDF88B
:100A40002CC096E80F0085E80F00062112208DEDDE
:100A5000087B00F03FFD0621132000F03BFD06213E
:100A6000142000F037FD0323122241460097204650
:100A700003F08CFD2B46029A4146204603F0CCFD44
:100A8000464B1A6802F110039F4063683B42FCD159
:100A900040F28F250121DAF80000131D44F823509D
:100AA00000F11003384C994063680B42FCD140F2CE
:100AB000DF150121DBF80060031D44F8235006F127
:100AC0001003314D99406B680B42FCD1012440F278
:100AD0003F1704FA00F004FA02F2311D024304FA4F
:100AE00006F6324345F82170110201F470612D4B76
:100AF00002F00F020A431A60244B20461E6803F0DE
:100B0000DFFD0746204603F0DBFD4FF0A04503461E
:100B1000DBF80010DFF8A0C0043106EB8106049971
:100B2000214A0868B9012944086005980CEA473C45
:100B30004E60886002EA43304CEA433242F480223D
:100B400040EA473042F011020A6140F4FC00049A86
:100B50009B012B4404FA07F640F009001A60596023
:100B60009C601861C5F850640FB0BDEC028BBDE805
:100B7000F08F00BFAFF300800000010000F0010023
:100B800000000C405202300C00002050AC0F00203E
:100B9000705500104C55001030550010F80F002013
:100BA0002046004400202050FD1F7EFC340600201B
:100BB0003006002000020004FD1F00FC024B1B68F1
:100BC0005B6B9862704700BFB41100200F4B1B682D
:100BD0005B6BB3F800C0604517DA5A88914214DAAB
:100BE00000B593F810E05A7C5B6812FB01F21EFB23
:100BF00000F180B28C45C8BF1EFB00F092B2C8BFA6
:100C000080B218805A805DF804FB7047B411002050
:100C1000012838BF0120024B1B685B6B987470473A
:100C2000B4110020024B1B685B6B987C704700BFBF
:100C3000B4110020024B1B685B6B5B68D880704767
:100C4000B4110020024B1B685B6B5B68D88870474F
:100C5000B4110020024B1B685B6B5B681871704716
:100C6000B4110020024B1B685B6B5B6858717047C6
:100C7000B4110020024B1B685B6B187659767047E5
:100C8000B4110020024B1B685B6B187E704700BFDD
:100C9000B4110020064B10B51B6800215C6BE269A3
:100CA000A06A03F0F5FF002263681A6010BD00BF60
:100CB000B4110020114B30B51B685C6B40EA010396
:100CC000B4F802E0DB0F8E45D8BF43F00103B4F85F
:100CD00000C06BB984450BDD01FB0C00A56A411017
:100CE000C0076B5C05D5208C034043EA02126A54AE
:100CF00030BD608C03401A436A5430BDB4110020EB
:100D00002DE9F041214C2468D4F83480B8F800C0B3
:100D1000844519DD1F46B8F802300E468B4213DDBC
:100D200083189C45B8BFACEB000C1446B8BF0CF15F
:100D3000FF34C207054620D4E30715D46210002A09
:100D400002DDB6F5F07F01DBBDE8F081D8F82800C0
:100D500006EB86066D1005EB861547EA0711284459
:100D6000BDE8F04103F094BF281901383A4600B2BB
:100D700031B2FFF79FFF013CE0E73A4609B200B20B
:100D8000FFF798FF0135013CD6E700BFB411002002
:100D90002DE9F04F254C8A4626685918746B9DF84A
:100DA00024706588A94203DD6B1EA3EB0A031BB206
:100DB0009042844637DC9A4535DC02F101095D1C1E
:100DC0004FEA071853460FFA8CF109E0228C0240D3
:100DD00042EA08020BF80E200133AB421DD0746BBF
:100DE0002288608841EA030E6245C8BF9842F3DD5D
:100DF0001EF4004FF0D103FB02C2D4F828B04FEA32
:100E0000620ED2071BF80E00E0D4628C0133104052
:100E10003843AB420BF80E00E1D10CF1010CCC458C
:100E200001D0746BCEE7BDE8F08F00BFB411002095
:100E30002DE9F04F91469A46454B89B01C689DF8C4
:100E40004850D4F834B0082210230746884600954D
:100E500000B209B2FFF79CFF9BF8116019FB06F284
:100E6000002E71D03B49561E0E44C1F101018A1A71
:100E70005FFA8AFA2901BBB204914FEA0A11CDE95F
:100E8000051B19461FFA88F8079216F801BF0A4693
:100E900007270FFA88F9039615E07BB90EFB0900C6
:100EA000D6F828E04FEA600CC0071EF80C3033D5A6
:100EB000308C1840059B18430EF80C00013F01329E
:100EC0007B1C92B235D0666B42EA08007388B6F894
:100ED00000E09945B4BF002301234BFA07FC43EA25
:100EE000D03310B28645D8BF43F001031CF0010F88
:100EF000D3D1002BE2D10EFB0900D6F828E04FEA4F
:100F0000600CC0071EF80C300DD5308C1840049BC7
:100F100018430EF80C00D1E7708C03404AEA030333
:100F20000EF80C30CAE7708C03402B430EF80C30DF
:100F3000C4E7069B039E587C079B08F101089A1999
:100F400090421FFA88F8A0DC09B0BDE8F08F00BF1E
:100F5000B41100208C5500102DE9F04F774C022B76
:100F6000D4F800908846D9F834401646656887B0B2
:100F70002F88B5F802B00AD00246019338460B46D6
:100F800000965946FFF754FF07B0BDE8F08F23885D
:100F90003AB29A421546F7DA63880FFA8BF1994212
:100FA000F2DA12F10B0FEFDB11F10F0FECDB01F1B5
:100FB000100C6345AFBF4FF0100A03F1FF3AAAEBE4
:100FC0000B0A1FFA8AFA102A0FFA8AFA3BDC5145FB
:100FD00039DCCDE9037B0AF1010A0B46934609E0AF
:100FE000248C0EEA040402F80C400133534521D04E
:100FF000D9F834402788B4F802C0AF428CBF002231
:1010000001229C45D8BF42F00102002AEDD1002BFD
:10101000EBDB03FB0757A26A4FEA670CFF0712F8E6
:101020000CE0DDD4648C01330EEA040E534502F863
:101030000CE0DDD10135112D5A4602D0D9F83440EB
:10104000CBE7DDE9037BB04500EB800049D03C4BAA
:101050000BF1100900EB030A07F10A0083B20493B5
:101060003046134646465246B846DA4607469B4641
:101070001FFA89F9059112F8015BCDF80C805446EE
:1010800090460223EA0721B204F102044CBF009605
:10109000009758461A46A4B2FFF77AFEA1454FEAD8
:1010A0005505EED14246DDF80C8008F102031FFA27
:1010B00083F8049B98453ED13E46D34605990FFAE6
:1010C00088F701E00FFA8BF102230BF1020B38468F
:1010D0001A4600961FFA8BFBFFF75AFED945F1D14D
:1010E00052E7174E07F10A0A06441FFA8AFACDF8AA
:1010F0000CA0B246464690460BF110091FFA89F93A
:101100005C461AF8015BE90706D5022340461A46F9
:10111000009621B2FFF73CFE0234A4B2A1454FEA8B
:101120005505F0D1039B0237BFB2BB423FF42CAF51
:101130000FFA87F8E4E70FFA88FB9CE7B411002068
:10114000AC5D00102DE9F0410546007818B31F4B47
:101150004FF6FA7800271E680FE00D280AD00928FC
:101160001BD1626894F824001388218803448B42C1
:1011700000DA138015F8010F68B10A28746BECD1FE
:101180006368A17C5A881F8002EBC1025A8015F85F
:10119000010F0028F1D1BDE8F081A37C627E217EA1
:1011A000FFF7DAFE6168A27C207C0B8800FB02332B
:1011B00020889BB212FB080293420B80DADD0022EA
:1011C000637C0A804A8813444B80D3E7B411002023
:1011D0001B4B0A281B6810B55C6B0DD00D280AD07C
:1011E000092812D1626894F82400138821880344E6
:1011F0008B4200DA138010BD00216368A07C5A88FE
:10120000198002EBC0025A8010BDA37C627E217E51
:10121000FFF7A2FE4FF6FA7C6168A27C207C0B8867
:1012200000FB023320889BB212FB0C0293420B801E
:10123000E1DD0022637C48880A8003444B8010BDB6
:10124000B4110020114B70B51B6882B05C6B6268F2
:10125000237E1579B2F800C05188667E65B10446D8
:10126000507900B144B10124127A6046009601948D
:10127000FFF7DEFD02B070BD01246046202200961B
:101280000194FFF7D5FD02B070BD00BFB41100207E
:101290002DE9F843804638200F46914601F0CEFBF9
:1012A0000546274E2C20356001F0C8FB0446002D72
:1012B0003DD000283BD0686300F0CEF8072323839D
:1012C000204B60601B68B8F1000F2ED01E491F4AEA
:1012D000E360226241F2080222820122A274042207
:1012E000306884F824201A4B1A4A21606261C4F8DD
:1012F0001C90A7621849194A194D0360194B1A4CE2
:10130000C0E90323C0E90151184A1949194BC0E942
:101310000541C0E90923184C1849194A194BC0E97D
:101320000741C0E90B23BDE8F8831749CFE72846FA
:1013300001F0A0FB204601F09DFB0020F3E700BF79
:10134000B4110020380600208002E0010F00F000F8
:10135000451100108C550010850C0010110C001068
:10136000750C0010250C0010CD0B0010550C001052
:10137000950C0010650C0010450C0010350C001089
:10138000D1110010BD0B00104001F0000123844674
:101390000832486800B503FA02FE1EEA000F03BFD8
:1013A00051F8222018468CF8002000205DF804FB3C
:1013B000B0F5207F02D2024B1B681880704700BF37
:1013C000AC110020B0F5F07F02D2024B1B685880B0
:1013D000704700BFAC110020B0F5207F02D2054B52
:1013E0001B681880B1F5F07F02D2024B1B68598050
:1013F000704700BFAC110020014B1B68187170478B
:10140000AC110020014B1B6858717047AC110020D3
:10141000014B1B68D8807047AC110020014B1B6842
:10142000D8887047AC110020014B1B6818727047B8
:10143000AC110020014B1B6818887047AC110020CC
:10144000014B1B6858887047AC110020014B1B688A
:1014500018797047AC11002010B5382001F0EEFA71
:10146000E8B1002280230E4C0E49206041600E4CF2
:101470000E490260C0E903410D4C0E490372C0E9F8
:1014800005410D4C0D49C0E907410D4C0D49446320
:1014900041620D4C0D49C0E90A410D49016310BD7F
:1014A000AC1100200101FA00B1130010C5130010A7
:1014B000D9130010F91300100514001011140010B6
:1014C0001D140010291400103514001041140010D0
:1014D0004D14001010B44FF480740C4B53F82020BE
:1014E00003EB8003C00082F0400200F1804003F56E
:1014F000805C02F0C00200F5203003F54053CCF8C8
:10150000002041601C605DF8044B7047048003407C
:1015100010B4084CC90041EA820154F8202004EBC1
:101520008003514003F5805301F00C015DF8044B3A
:1015300019607047048003400FB400B583B0049C69
:10154000074802F067FF3CB105A92046019102F06F
:1015500005FE044802F05EFF012002F017FE00BF06
:10156000E8530010F8530010EFF3108072B6064BEA
:10157000D3E8CF1F01220029FAD1C3E8412F002967
:10158000F6D1BFF35F8F70478B0F00200023034A13
:10159000C2E88F3F80F31088704700BF8B0F002098
:1015A00070B58646EFF3108572B6124CD4E8CF6F53
:1015B0000120002EFAD1C4E8460F002EF6D1BFF369
:1015C0005F8F4FF0010CC80801F007030CFA03F31A
:1015D0001EF800C01CEA030608D14CEA030C0EF802
:1015E00000C0C4E88F6F85F3108870BD1046FFF708
:1015F000A3FF00BF8B0F0020F8B5EFF3108772B682
:101600001C4ED6E8CF5F0124002DFAD1C6E8454F25
:10161000002DF6D1BFF35F8F9A421BD8012502E05F
:101620000132934222D3D40810F804E002F0070CF0
:1016300005FA0CFC1EEA0C0FF2D14EEA0C0E00F873
:1016400004E010460023C6E88F3F87F310889842D5
:1016500007DBF8BD0023C6E88F3F87F310884FF003
:10166000FF300029F5D00698FFF766FF4FF0FF30F6
:10167000E8E700BF8B0F0020044A1078431CDBB260
:10168000182B28BF10231370704700BF3C060020A2
:101690004FF0E022936843F000539360704700BF1F
:1016A0000021044B03F12002C3E88F1F0133934252
:1016B000FAD17047800F00204FF0E0234FF08032C6
:1016C000C3F80024C3F80424C3F80824C3F80C2486
:1016D000C3F81024C3F81424C3F81824C3F81C2436
:1016E000C3F82024C3F82424C3F82824C3F82C24E6
:1016F000C3F8302462B67047012300F01F02934004
:10170000400941B1800000F1604000F56140C0F83F
:10171000803103607047024A203042F82030704721
:1017200000E100E0F8B50D46EFF3108772B6124EF7
:10173000D6E8CF2F0123002AFAD1C6E8423F002A7B
:10174000F6D1BFF35F8F0D4B00F110049B680C4A7C
:1017500053F82430934203D0994201D000F0F6FEB2
:10176000064B9B6843F82450BFF35F8F0023C6E805
:101770008F3F87F31088F8BD890F002000ED00E04F
:1017800011010010014B0B4403607047800F0020D3
:1017900070B5104C104DAC420ED2FF26236863B1D9
:1017A000FFF76AFF01462046FFF7ECFFA680BFF374
:1017B0005F8F0834AC42F1D370BDFFF75DFF014687
:1017C0002046FFF7DFFF2671BFF35F8F0834AC427E
:1017D000E4D370BDB00B0020C00B00200D4B1A6885
:1017E000EFF3108172B6D2E8CFCF0120BCF1000F29
:1017F000F9D1C2E84C0FBCF1000FF4D1BFF35F8FF9
:1018000000221B68C3E88F2F81F3108840BF00209F
:1018100000217047A81100202DE9F04F2DED028B1B
:1018200085B0EFF30583DBB2103B9A0818BF0122A5
:101830004FF0010103F0030B18BFAF4DAF4B08BFD2
:10184000AF4D0BEB820253F8226001FA0BF205F563
:1018500041539FEDA78B01925A602FE0B3881C047F
:1018600040F19380B379002B40F0DD80B6F9082079
:10187000002AC0F21E81736902EB420203EBC2032D
:10188000D3E90247B7F1FF3F08BFB4F1FF3F0ED0E5
:1018900005EB8B01AB6A0A69D21AE31A934205D3AE
:1018A00001232A6A03FA0BF3134200D10C61284684
:1018B00000F0ACFBA042B941C0F2FB80B6F90830A1
:1018C000019A002B0093EA63C8DBD6F8148003EB7F
:1018D0004309284608EBC907D7E9024A00F096FBFE
:1018E000A04271EB0A01B9DBBAF1000FC0F2C3806C
:1018F000D7E90431834A934200F0ED807A88B6F943
:10190000080092B242EA0040984702460B4652EA6B
:10191000030100F0B080002B80F2D180B4EB020E06
:101920006AEB030A38F93930C7E902EA002B95DB84
:10193000716903EB430201EBC202D2E90270BE45BA
:101940007AEB000C4FEA430288DBB4462CF8083FE0
:1019500006E003EB430001EBC0005A00D0E902703F
:10196000BE451A447AEB000001EBC20404DB31F9F6
:101970003230A446002BECDA28F83930009BACF862
:101980000030B3881C043FF56DAF3369EFF310826C
:1019900072B6D3E8CF0F01210028FAD1C3E8401F67
:1019A0000028F6D1BFF35F8F4FF6FF74B088002395
:1019B000316900B2B480C1E88F3F82F31088984249
:1019C000FFF650AF0746A946746906F1080807EB11
:1019D000470E04EBCE03D3E90250B6F90830C446F3
:1019E000002B13DBB246009704E034F936309446FE
:1019F000002B09DB03EB430604EBC602D2E90271BC
:101A0000BD4270EB0101F0DA5646009FACF8007061
:101A100034F93E7024F83E30002FD8DAB3794D46C1
:101A2000002B3FF423AF0023B371B6F9083006F161
:101A30000808581C3DD01A46776903E08046591CB7
:101A40003FF416AF03EB430107EBC100B0F802C04F
:101A50001C461CF4004F9E4637F93130EED09442BC
:101A600080ED028B05D0A8F80030328927F83120AC
:101A700034817246E3E738F8393033813369EFF364
:101A8000108272B6D3E8CF0F01210028FAD1C3E843
:101A9000401F0028F6D1BFF35F8F7388316928F8A3
:101AA0003930009B73800023C1E88F3F82F3108898
:101AB000D4E640BF05B0BDEC028BBDE8F08F2846F0
:101AC000CDE9022300F0A2FA029A039B10EB020E6A
:101AD00043EB010A26E708460B6902919847002864
:101AE000C9D00299D1E9002311E700BFAFF300800C
:101AF000FFFFFFFFFFFFFFFF00800B4024100020CF
:101B000000000B40191800102DE9F84F364C2569DC
:101B10002DB1BDE8F84F0A213448FFF733BEDFF896
:101B2000E4800321404600F05FFA0326C4F80C80ED
:101B3000FFF7A2FD4FF0504C2D4B2670034423615C
:101B4000DCF800300F216370636961801D834FF002
:101B50000405A3F878504FF00505A3F890504FF016
:101B60000605A3F8A8504FF007050E214FF6FF72A7
:101B700008274FF00A0EA3F8C0504FF001094FF0AC
:101B80000C0C4FF0020B4FF0090A0D204FF00B0523
:101B9000A3F868111749A280A3F808E1A160A3F88F
:101BA00048B0A3F8F0A0A3F82051A3F838C1A3F8D7
:101BB0005001A3F83090A3F86060A3F8D8701A80A1
:101BC0000D4B3046C8F820700C49DC60FFF7AAFDC9
:101BD00049463046FFF790FD094B0A211F64034830
:101BE000BDE8F84FFFF7CEBD40060020A811002049
:101BF000800F0020FFFF1000241000201918001093
:101C000000200B4000000B400048704740060020B9
:101C10000146F0B50069EFF3108772B6D0E8CF5FE8
:101C20000124002DFAD1C0E8454F002DF6D1BFF3B5
:101C30005F8FB1F902E04C690EEB4E0CBEF1000F64
:101C40004FEACC05086904EBCC0C3CDB665B4E80AC
:101C50000026C0E88F6F87F31088BCF80200CCE93B
:101C600002230130C0F30E00012838BF0120059B7C
:101C7000ACF80200CCF81030069B40EA0E40CCF8DD
:101C800014300B69EFF3108272B6D3E8CFCF01277F
:101C9000BCF1000FF9D1C3E84C7FBCF1000FF4D1C7
:101CA000BFF35F8F8B886353A1F804E00B69C3E82F
:101CB0008F6F82F310880122CB68097803F50153F6
:101CC0008A405A60F0BD0023C0E88F3F87F3108838
:101CD0004FF0FF30F0BD00BF03464089B0EB214F0D
:101CE00037DD58690A1402EB420210B500EBC2005E
:101CF0001C69EFF3108C72B6D4E8CFEF0122BEF16D
:101D0000000FF9D1C4E84E2FBEF1000FF4D1BFF39C
:101D10005F8F428889B292B28A4207D000221B6943
:101D2000C3E88F2F8CF31088002010BD42F40042CE
:101D300042800121002218699971C0E88F2F8CF32D
:101D400010881C78DA68084602F50153A1405960F2
:101D500010BD0020704700BF2DE9F04306460D4638
:101D600083B0EFF30584E4B23CB12D4B5A6AAA422A
:101D70001CD2002003B0BDE8F0832A4FD7F80C90A6
:101D800097F80080484600F041F908F1040859F836
:101D900028301B1A301A65EB0101984271F10001DD
:101DA00010DB20BF1E4B5A6AAA42E2D314BF0124A3
:101DB00000249B6AB34234BF204644F0010003B0C4
:101DC000BDE8F08300F02AF9864265EB01010029A5
:101DD00014DB154B3846CDE9003432462B46FFF76D
:101DE00017FF011E0ADD0E4B5A6AAA4216D39B6AE0
:101DF000B34211D30B48FFF76FFFB6E7084B5C6A9D
:101E0000AC42B6D3641B18BF01249B6AB34234BFF3
:101E1000204644F00100ADE7AA42EBD120BFE9E73C
:101E200000000B4040060020DD1700102DE9F041B6
:101E30000446DDE9071552EA030072D0002B16466E
:101E40001F4673DB0698C5E900232861AC60696111
:101E500000F0E4F84FF0FF326FF00043801947EBD9
:101E60000107824273EB07013CBF1F4610462369FE
:101E7000EFF3108272B6D3E8CF6F0121002EFAD1B2
:101E8000C3E8461F002EF6D1BFF35F8FB4F90210EE
:101E9000666901EB410300294FEAC30CD4F81080B6
:101EA00006EBC30346DB36F80CE0A4F802E04FF083
:101EB000000EC8E88FEF82F310885A88C3E9020742
:101EC0000132C2F30E02012A38BF01221E485A8095
:101ED0005D61186142EA01422369EFF3108072B636
:101EE000D3E8CF8F0127B8F1000FF9D1C3E8487FBD
:101EF000B8F1000FF4D1BFF35F8FA38826F80C3040
:101F0000A1802369C3E88FEF80F310880120217836
:101F1000E36800FA01F103F501535960EA60BDE896
:101F2000F0810126002732463B468BE7564263EBA1
:101F3000430787E70020C8E88F0F82F310884FF02F
:101F4000FF32EA60BDE8F081191800100246C0684F
:101F500000B9704791680314B1F80AC0BCEB204F78
:101F60003DDD30B54C6903EB430304EBC30C0B6957
:101F7000EFF3108E72B6D3E8CF5F0124002DFAD1B3
:101F8000C3E8454F002DF6D1BFF35F8F83B2BCF895
:101F9000020080B2834209D000230969C1E88F3F63
:101FA0008EF3108800230020D36030BD43F400433B
:101FB000ACF802304FF0010C0023086981F806C02C
:101FC000C0E88F3F8EF31088CB68097803F5015382
:101FD0000CFA01F1596000236046D36030BD002344
:101FE0000020D360704700BF10B4054B054C064A73
:101FF000A04214BF1846581C5DF8044BFFF7D0BA36
:10200000B80F002000800B40FC5300100346416ACB
:102010000A46986A596A8A42FAD17047034B596A4C
:102020000A46986A596A9142FAD1704700000B40FB
:1020300000EB400C4FEA8C0C0CF1804C0CF5803C12
:10204000F0B51646DCF80420051FB2F5803F38BF16
:102050004FF48032EDB238BFCCF80420012D2AD9DC
:102060004FF40067254C0CF54052176054F82020BF
:10207000B2B9DCF80020012D82EA461202F0E0023B
:102080000CF5805632602AD94FF4006144F82030B4
:102090004FF480330CF500521160CCF80430F0BDE1
:1020A0006769B7FBF2FE0EF1010E0EEB4E0EBEF1AC
:1020B000030EFCD2DDE70129D2D103240CF54052F6
:1020C0001460DCF80820D207FBD5DCF800200B4CAC
:1020D00082EA461202F0E0020CF5805632600122DC
:1020E000DCF800504D4005F00305356002FA01F1BF
:1020F000DCF808200A42FBD0C6E700BFC00F002072
:10210000014B53F820007047C00F0020584B2DE9B9
:10211000F0431C6C1746B4F5803F38BF4FF4803253
:1021200083B038BF1A64032280460E46514B504D8F
:10213000DA636C6CE307FCD5EB6B4F4A83F020034A
:1021400003F0E003D363EB6B494D83F0010303F02D
:102150000303D3636C6CA407FCD54FF400624FF407
:102160008039464B464CDA63464B42466361012157
:102170003346C5F840904448009700F057F94FF4B3
:1021800000616B6B07FB06F64B4538BFC5F8349012
:10219000384B2269B8FBF6F619633AB16369B3FBB1
:1021A000F2F3013303EB4303033BFDD23049324AE0
:1021B0000B6B03F0E00313630B6B83F0020303F07C
:1021C000030313638B6B5807FCD54FF400654FF482
:1021D00080332A4A15632D4A4B6322610A6C9A4266
:1021E0004FF0030238BF0B64224B2149DA634B6C7A
:1021F000DA07FCD5CB6B204A03F0E003D363CB6B4B
:102200001B4983F0010303F00303D3634B6C9B076B
:10221000FCD54FF480334FF40065184A6661D563EE
:102220000B64CA6C9A4238BFCB644FF40061114B07
:10223000A26999643AB16369B3FBF2F3013303EB2A
:102240004303033BFDD24FF400604FF48031084A52
:10225000094D936C83F0400303F0E003AB64074B3C
:10226000084DA5619864D16403B0BDE8F08300BF58
:1022700000000140003001400010014000200140FA
:10228000C00F0020006CDC0200000540001BB700FE
:102290002DE9F04F4FF4A078994685B0CDE90212B0
:1022A0005F4CDFF884A154450AD908F1FF38A4F542
:1022B0003B54B8F10F0FA4F12004F4D1002069E0E1
:1022C000072304F53722019403FB03F402F5D872C7
:1022D000B2FBF4FE70454FF0010C4FF002074FF0D7
:1022E00003064FF004054FF005013FD0B3F1010E96
:1022F00000F094800EFB03F4B2FBF4FB58454CD085
:1023000019B301FB03F4B2FBF4FB58454FD0E5B120
:1023100005FB03F4B2FBF4FB584553D0AEB106FB0A
:1023200003F4B2FBF4FB584557D077B107FB03F435
:10233000B2FBF4FB58455BD0BCF1000F05D00CFBA1
:1023400003F4B2FBF4FB83455DD0734603FB03F457
:10235000B2FBF4FE704501F1FF3105F1FF3506F1E6
:10236000FF3607F1FF370CF1FF3CBFD104FB10240F
:10237000002CBBD19E464A46DDF808B0DDF80C9033
:102380000120284901FB08F1CBF80010C9F8003002
:10239000C2F800E005B0BDE8F08F04FB1024002C6B
:1023A000AED14A46DDF808B0DDF80C90E8E704FB52
:1023B0001024002CABD14A468E46DDF808B0DDF87B
:1023C0000C90DDE704FB1024002CA7D14A46AE4652
:1023D000DDF808B0DDF80C90D2E704FB1024002CE7
:1023E000A3D14A46B646DDF808B0DDF80C90C7E741
:1023F00004FB1024002C9FD14A46BE46DDF808B0ED
:10240000DDF80C90BCE704FB1024002C9DD14A465B
:10241000E646DDF808B0DDF80C90B1E7019C44E732
:1024200050262F00001BB70050F80C0070B4039D1D
:1024300004682D0345EA03451B4B002CB3FBF1F365
:10244000B2FBF3F61FDB194A194B904214BF4FF44D
:1024500080424FF40042174C1A6003F580531A6013
:10246000A36832EA0303FBD1212200F54053043371
:10247000016086601A600268002AFCDA0822C560E2
:102480001A6070BC7047036803F03F038B42DAD1D7
:102490008368C3F30B03B342D5D1C36803F4EE23BF
:1024A000AB42D0D1EDE700BF001BB7000080054074
:1024B0000020024000000240012300EB40008000A9
:1024C00000F1804000F5841041600360704700BF58
:1024D0000023DB8A002242E800F2520201D41021DC
:1024E00018470421184700BF034AD2F82838002BA8
:1024F000FBD0BFF35F8F704700000E400021044BFC
:10250000044ABFF35F8F43F8041B9342F9D170472D
:102510000C080E402C080E4010B44FF48D704FF490
:102520002A64064A064B07491460D0601960536854
:10253000002BFCDA5DF8044B704700BF00800440BC
:1025400000A0044000B0FA00704700BF08B5014881
:10255000FEF7F2FF2054001038B5054C054DAC4293
:1025600004D254F8043B9847AC42FAD338BD00BFBC
:1025700090510010D051001010B40748074C084B80
:10258000084A094904601A608B6832EA0303FBD1E8
:102590005DF8044B704700BF002002407F3BEFEF27
:1025A00000300240F6FFF30300000240044BDB6CF6
:1025B000B3F5004F03D14FF48022024BDA64704729
:1025C00000001150002011504FF0E022044BD2F8CF
:1025D000881D0B43C2F8883D10EE3004704700BFE1
:1025E000030330006FF06041044B054A19609368A3
:1025F000DB4333F06043FAD1704700BF0030024044
:102600000000024010B545F25320FFF761FFBDE81E
:10261000104003460420184710B545F25320FFF739
:1026200057FFBDE81040034601201847FFF738B8B0
:102630001449154B70B55C1AA610442E324628BFBB
:102640004422124D9200284602F09AFBB4F5867F90
:1026500013D80F4AC6F1440012D02B19410803EBDE
:10266000C101C3E9002208338B42FAD1C30704D564
:1026700020F00100304445F82020064B9D6070BDDD
:102680004320F8E7000000101001001000000020B7
:102690001101001000ED00E0002370B52B4C82B05A
:1026A000C4F88430FFF738FF0122294BDA63636CEA
:1026B000012BFCD10321264A244B11639C6B012C76
:1026C000FCD10226052521460523224A22480096F0
:1026D000FFF7ACFE21462B46204A21480095FFF724
:1026E000A5FE0022042031461E4BFFF7A1FC214627
:1026F000284600221C4BFFF79BFC002208201146B5
:102700001A4BFFF795FC002209201146174BFFF7E3
:102710008FFC002206201146134BFFF789FC002294
:10272000114B07201146FFF783FC0420FFF7E8FC5C
:1027300000240F4BA3FB0035AD0CE0B22946013459
:10274000FFF7BAFE062CF8D102B070BD00000140C0
:1027500000300140002F685900000540008C86477A
:1027600000800540001BB70080D1F008006CDC023F
:1027700083DE1B4386B003B451FC0804CDE902019B
:1027800051FC0904CDE9040151EC0A04CDE906012C
:1027900003BCF047BDE800504EEC00C4BDE800505B
:1027A0004EEC01C4BDE800504EEC02C400BD000078
:1027B00000B5FFF7DFFF02E010FE30F4F8D441EC83
:1027C000100443EC112400EE010410EE010480EE2D
:1027D000200451EC1004704700B5FFF7CBFF02E076
:1027E00010FE30F4F8D441EC100443EC112400EE58
:1027F000010410EE210480EE200451EC30047047F7
:1028000000B5FFF7B7FF02E010FE30F4F8D410B5C2
:1028100041EC100443EC112451EC040453EC052466
:10282000A0FB024C5FF0000EE0FB03CEE1FB02CE0A
:102830004CEC20440024E1FB03E444EC30E480EE63
:10284000200451EC5004BDE81040704700B5FFF77C
:1028500091FF02E010FE30F4F8D441EC100443EC98
:10286000112451EC2104A0FB01126FEA820252FBF9
:10287000100052FB12F252FB1000A0EBD07C53EC84
:1028800004245CFB13F153EC1524A1FB022001FB93
:10289000030053EC4424A2EB000050FB1CF24FEA6F
:1028A000111312EB017043EBE27140EA515020EA40
:1028B000915020F0070053EC7524A0FB023C53EC30
:1028C000752400FB03CC01FB02CC53EC0424ACEBDD
:1028D000824C40EA5C70A0F1010041EC400480EEC3
:1028E000200451EC7004704700B5FFF743FF02E08D
:1028F00010FE30F4F8D440EC700400EE010410EE49
:10290000210480EE200451EC3004704700B5FFF73D
:1029100031FF02E010FE30F4F8D440EC600400EE29
:10292000010410EE210480EE200451EC30047047C5
:1029300000B5FFF71FFF02E010FE30F4F8D441ECC1
:10294000800400EE010410EE010480EE400410EE5D
:102950001304704700B5FFF70DFF02E010FE30F4DE
:10296000F8D441EC800400EE010410EE010480EE86
:10297000400410EE3304704700B5FFF7FBFE02E0A1
:1029800010FE30F4F8D441EC100443EC112400EEB6
:10299000010410EE3004C0F30070704700B5FFF77B
:1029A000E9FE02E010FE30F4F8D443EC102441ECD0
:1029B000110400EE010410EE30F48CBF0120002061
:1029C000704700BF00B5FFF7D5FE02E010FE30F4FF
:1029D000F8D443EC102441EC110400EE010410EE95
:1029E00030F42CBF01200020704700BF00B5FFF776
:1029F000C1FE02E010FE30F4F8D441EC100443ECC8
:102A0000112400EE010410EE30F42CBF0120002050
:102A1000704700BF00B5FFF7ADFE02E010FE30F4D6
:102A2000F8D441EC100443EC112400EE010410EE44
:102A300030F48CBF01200020704700BF38B5044639
:102A4000094802F09DFB204601F04AFE0546064873
:102A500002F092FB2DB1054B2C449C4201D8284634
:102A600038BD0348FEF768FDB00B002000000820C9
:102A70002C54001010B50446054802F081FB204696
:102A800001F036FEBDE81040014802F075BB00BF02
:102A9000B00B00209A4238BF88547047704700BF7F
:102AA0002DE9F04F83B09946DDE90DAB0F9B8846C9
:102AB00011469A07074616D1DA453AD20C460D461A
:102AC000ABEB0A060E4422464B4641462020013419
:102AD000B847B442F7D12946BAF1000F08D12046D1
:102AE00003B0BDE8F08F0C46BAF1000F10D00E46CF
:102AF00055460C9B2E449A440191721B4B46013D56
:102B000041461AF8010D3446B847002DF5D1019918
:102B10000F9B9B07E3D5651AAB45E0D922464B4690
:102B2000414620200135B8475D4504F10104F5D345
:102B3000D5E70C46BAF1000FD9D1D0E72DE9F04F17
:102B40000F9FDDF8248017F0020F0A9C9DF82CA03F
:102B50000E9DDDE90C9644D1F5BBB44241D207F09D
:102B6000010B04F1FF3C4FF0300EC44404E001348B
:102B7000A6420CF801EF01D9202CF8D1BBF1000FCF
:102B800000F08880A5422CD904F1FF3C4FF0300EB4
:102B9000C44404E00134AC420CF801EF21D0202CF5
:102BA000F8D117F0100F0ED017F4806F54D1A64251
:102BB00063D0A54261D0B9F1100F50D0B9F1020F26
:102BC00056D0202C29D12024CDE90B57CDE90984FA
:102BD000BDE8F04FFFF764BF17F0010B34D1B442EA
:102BE000BFD317F0100F1ED017F4806FE3D1002C65
:102BF000DDD1B9F1100F63D0B9F1020F77D03024D5
:102C000088F800400124BAF1000F11D17E0748D5A1
:102C10002B2608F804600134D6E7264601344FF02D
:102C2000300C08F806C0202CCDD0BAF1000FEDD042
:102C30002D2608F804600134CDE90B57CDE909844D
:102C4000BDE8F04FFFF72CBFBAF1000F30D0B4420F
:102C500005F1FF3585D395E7B9F1100FB3D1BE0665
:102C60003BD5202CAFD0582608F804600134A8E7E3
:102C7000202CA8D02646013407E0661EB9D0B9F151
:102C8000100F36D0B9F1020FC9D14FF0620C08F81D
:102C900006C096E717F0100FC5D017F4806F86D0E6
:102CA00089E73E0790D5202608F8046001348BE7B9
:102CB00017F00C0F00D0013DB442FFF452AF61E7B2
:102CC000BC0612D4782488F80040302488F80140EB
:102CD0000224BAF1000F99D0AAE7202C3FF473AF79
:102CE000782608F8046001346BE75824EBE7622487
:102CF000E9E717F0200FA4F1020C04D04FF0580EB2
:102D000008F80CE08BE74FF0780E08F80CE086E747
:102D100000B9704701F03CBB2DE9F04F97B09DED35
:102D2000207BDDE9225B0746884651EC170B249C8B
:102D300099460C920B4602468DED047B0794FFF7F3
:102D40001FFE002840F0F481DDE904014FF0FF325E
:102D50006FF48013FFF726FE002840F01B81DDE9A9
:102D600004014FF0FF32AC4BFFF758FE002840F053
:102D7000EE80DDE90401A4A3D3E90023FFF74EFEB2
:102D8000002840F0D380DDE90401A1A3D3E90023AA
:102D9000FFF708FE002840F0C980DDE904010022A9
:102DA0000023FFF7FFFD002840F0E88023460D9048
:102DB00013F4806F08BF062530212B460EAAA5F11B
:102DC000200605E0013BB34202F8011B00F09381AD
:102DD000092BF7D81E46ED1ADDE90401FFF7ACFD1B
:102DE0008E4B044603EBC60393ED007B8DED087B11
:102DF000FFF77EFD02460B46DDE90401FFF7F0FC1C
:102E0000DDE90823FFF700FD02460B46CDE90A2362
:102E1000FFF7A4FD8246FFF77DFD02460B46DDE984
:102E20000A01FFF7DDFC02460B46CDE90A2300222A
:102E30007B4BFFF7F3FD002800F0FE800AF1010A4A
:102E40005046FFF767FD02460B46DDE90801FFF734
:102E5000BDFD10B14FF0000A0134002E00F0FD80DE
:102E6000681E0EABDFF8CCC118440FE0ACFB0A21A2
:102E7000C90801EB8102AAEB42023032BAF1090F14
:102E800000F8012F40F21C818A461D46202D05F1D5
:102E9000010306F1FF36E9D12025691E0EAB61481A
:102EA000194410E080FB0462C3EBA20303EB83022E
:102EB000A4EB420404F1300201351C4601F8012F55
:102EC000002B00F0EB80202D4FEAE473EAD1079B42
:102ED00003F00303012B18D1BBF1000F15D00D9B9C
:102EE000002B00F00A810BF1FF3BBBF1200F0CD946
:102EF0006B1E0EA930220B4405E001355D4503F839
:102F0000012F80F0D180202DF7D1079B0EACCDE9A9
:102F100002B341464B4638460C9A01950094FFF7A0
:102F2000BFFD8246504617B0BDE8F08F079B9DED70
:102F3000047BCDE923B341464B4638460C9A8DEDD0
:102F4000207B229517B0BDE8F04F00F045B961072E
:102F500023464CBF042303234146219338464B4666
:102F6000079A48BF304CCDE922B258BF2F4C0C9A7B
:102F7000209417B0BDE8F04FFFF792BDDDE90423C0
:102F800000200021FFF72CFC0123CDE904010D9363
:102F900023460DE723469C0740F0AA80BBF1040FAF
:102FA00040F2A6800C9B1D461C1F04EB0B0A2A4610
:102FB0004B46414620200135B847AA45F7D1554632
:102FC0001B4C261F14F8010D2A464B464146B847B4
:102FD000B44205F10105F5D1079B0AF1040A9807EF
:102FE000A0D50C9CAAEB04039B459BD952464B46AB
:102FF000414620200AF1010AB847AAEB04035B45C9
:10300000F4D38FE7AFF300800000000065CDCD4121
:103010000000000065CDCDC1FFFFEF7F0863001009
:103020000000E03F67666666805400108854001018
:1030300094540010CDCCCCCC0022DDE90A01634BC6
:10304000FFF7B0FC00287FF408AFBAF1000F6AD197
:103050000AF1010A002E7FF403AF2046FFF748FC77
:1030600002460B46DDE90401FFF7BAFB02460B46B8
:10307000CDE904230022554BFFF794FC00287FF490
:103080000CAFDDE904010022504BFFF7C7FC00281C
:103090007FF403AF013424F00104FEE6079B03F044
:1030A0000303012B00F08280202D3FF42EAF0D9BF7
:1030B0007BB32D220DEB050383F83820013524E77F
:1030C000202B3FF4E9AE0EAA15441E44302204E042
:1030D000202B05F8012F3FF4DFAE9E4203F10103E0
:1030E000F6D12E220DEB060383F83820751CD4E6AA
:1030F000DDF830A063E720256EE6079B13F00C0F88
:1031000050D00BF1FF3BAB453FF6F2AE202D3FF424
:10311000FCAE079B5A0701D52B22CBE71B077FF597
:10312000F4AE2022C6E71AF0010F3FF496AE8FE707
:10313000A60734D1BBF1030F31D90C9B1D46DC1E11
:1031400004EB0B0A2A464B46414620200135B8477E
:103150005545F7D155461E4CE61E14F8010D2A467A
:103160004B464146B847A64205F10105F5D1079BFC
:103170000AF1030A9D077FF5D5AE0C9CAAEB040368
:103180009B457FF6CFAE52464B46414620200AF182
:10319000010AB847AAEB04039B45F4D8C2E6DDF860
:1031A00030A0D7E7AB453FF6A3AEAEE6BBF1000FCC
:1031B0003FF47AAF0D9B002B9FD00BF1FF3B5D4599
:1031C000FFF496AE202D7FF474AF9EE60000E03F42
:1031D0008F540010000000002DE9F04F9FB02A9E90
:1031E000DDE92845074693460891099322462B4678
:1031F000204629460E96DDE92BA6FFF7C1FB0028E5
:1032000040F0BE80204629464FF0FF32784BFFF752
:1032100005FC002840F0B480204629464FF0FF32DC
:103220006FF48013FFF7BEFB002840F0A980204612
:10323000294600220023FFF7B5FB002840F0D58186
:10324000CDE90A45DDE90A239046994606F4006275
:1032500016F480630F92139340F0A18058EA09039B
:1032600040F0CA80002A40F0E38106230E9316F056
:103270000202109240F0D4815346042B38BF04233D
:103280000C920422043B12920F93204629460022FE
:103290000023FFF787FB002840F0F3819DED0A7BB8
:1032A0000F9B5A4603930E9B8DED007B029326F4F1
:1032B000006304933846099B0899FFF72DFD0246E9
:1032C00016F0200F099B08990CBF6520452002F1DC
:1032D0000108B8470C9A129B16AC5D1E82EAE27395
:1032E000A3EBE273D10F002622469946DFF804C112
:1032F00001E0202E10D0CE46ACFB0930C00800EB18
:103300008003A9EB43033033BEF1090F814606F178
:10331000010602F8013BECD80523002006930A239E
:1033200005950094099D089C4246CDE90330CDE9FE
:1033300001612B4621463846FFF700FC109A804673
:10334000D2B1A0EB0B06B24516D90BEB06022B4609
:10335000214620200136B847B245F6D80BF1FF339D
:103360005344CBF10102A3EB08034244924538BF1A
:10337000002308F10108984440461FB0BDE8F08FD3
:103380005A463846CDE92845CDE92BA60E9C099B27
:1033900008992A941FB0BDE8F04FFFF7BDBC58EA6A
:1033A00009032BD1002A3FF462AF00230C930E9B3C
:1033B0000C9A934200F3B9814FF000082046294649
:1033C00000220023FFF7EEFA002840F013819DED64
:1033D0000A7B26F4006646F480668DED287B5A460B
:1033E0003846CDE92A8A099B08992C96D2E700BF76
:1033F000FFFFEF7FCDCCCCCC06230E93C9F30A5050
:10340000A0F2FF30FFF774FAC1A3D3E90023FFF75E
:10341000FBF9C1A3D3E90023FFF7CEF9C9F31309E0
:10342000CDE90C0149F07F5140460022B24B41F4F6
:103430004011FFF7D5F9A4A3D3E90023FFF7E4F97E
:1034400002460B46DDE90C01FFF7B6F9FFF774FA07
:103450000C90FFF74DFA9EA3D3E9002380468946DE
:10346000FFF7D2F90022A54BFFF7A6F9FFF764FAA0
:10347000034649464046129397A3D3E90023FFF73A
:10348000C3F9804612988946FFF732FA94A3D3E92C
:103490000023FFF7B9F902460B4640464946FFF7BD
:1034A0009FF902460B4680468946FFF7ADF9424632
:1034B0004B46CDE9100140464946FFF77DF9002211
:1034C000CDE91401DDE910018D4BFFF7C3F90022AE
:1034D0008C4BFFF771F902460B46DDE91001FFF74F
:1034E000B9F90022884BFFF767F902460B46DDE980
:1034F0001001FFF7AFF942464B468046894600204F
:103500004FF08041FFF76CF902460B4640464946B2
:10351000FFF752F902460B46DDE91401FFF79AF96D
:1035200000227A4BFFF748F9129B002203F2FF3C7E
:103530004FEA0C53FFF768F980468946DDE90A0136
:1035400042464B46FFF72EFA50B10C9B4046013BDA
:1035500049460C9300226B4BFFF77CF98046894665
:103560000C9A43466332C62A06F00202109249467C
:103570000F9A2CD8002A5ED0042212920B433FF4FB
:1035800016AFDDE90A0158A3D3E90023FFF732FAA9
:1035900048B1DDE90A0156A3D3E90023FFF702FA97
:1035A00000287FF404AF0E9B002B50D0139A002A02
:1035B0007DD0013B0E93129B9A4505D9109B002BA1
:1035C00000F0AE800223109300230F9344E022BB4F
:1035D000BAF1050F4FD906F00203002B49D105239C
:1035E0001293AAF105030F933AE005F100430A9400
:1035F0000B9327E626F4006646F4806638462C9640
:10360000DDE90A67344607F100455A46CDE92A8AC2
:10361000CDE92845099B0899BCE605221292ADE741
:1036200000230222CDE90F3204220C9312922CE6E1
:103630004FF00508C2E6BAF1040F1FD9109B002B0A
:1036400078D104231293AAF104030F9304E0129B90
:103650009A4531D80E9B0F930C9B002B3FF415AE6F
:10366000DDE90A0142464B46FFF7F4F8CDE90A01CD
:103670000BE60223109305231293F1E70423129320
:10368000EAE7DDE90A45A0460F9B05F100490393EF
:103690000E9B5A46029326F4006304933846CDE904
:1036A0000089099B0899FFF737FB024608E6129B41
:1036B0009A4544D80F92CFE7109B8BB30E9B0F9384
:1036C00002231093C8E700BF61436F63A787D23F0F
:1036D00071A379094F930A401655B5BBB16B0240EF
:1036E000EF39FAFE422EE63F2D431CEBE2361A3F3D
:1036F0000000000080842E410000F83F0000E03F01
:1037000000002C4000002440000018400000F03F62
:10371000FB799F501344D33FB3C8608B288AC63FC0
:10372000129BAAEB03030F9396E7A3EB020808F1A1
:10373000FF3843E604231293022310938CE7109B77
:10374000002BEDD002230F92109385E72DE9F04F67
:103750009BB0249C954D0A94954CB1F1000A18BF7A
:10376000834625601878934C914608BFA346099379
:10377000002800F093824FF000080AE042464B46D2
:10378000514608F10108D847099B1878002800F035
:10379000CE80099B252803F101030993EED11C4635
:1037A0000023224612F8010BA0F1200110290AD8AB
:1037B000DFE801F04009093C09090909090909384C
:1037C000093409093000A0F130010929099440F2B7
:1037D0008A802A2800F0F08000252E2800F09680AC
:1037E0000026A0F1680112292DD8DFE811F0490167
:1037F0002C0043012C0038012C002C002C002C0044
:103800002C002C002C0027002C002C002C002C005D
:103810002C002700144643F00103C2E7144643F08E
:103820000203BEE7144643F00403BAE7144643F02C
:103830001003B6E7144643F00803B2E70999487845
:1038400043F480730132672809927ED8242840F21D
:10385000C180A0F12502422A00F2BC80DFE812F00C
:103860005001BA00BA00BA00BA00BA00BA00BA00F1
:10387000BA00BA00BA00BA00BA00BA00BA00BA0078
:10388000BA00BA00BA00BA00BA00BA00BA00BA0068
:10389000BA00BA00BA00BA00BA00BA00BA00BA0058
:1038A000190137011901BA00BA00BA00BA00BA000A
:1038B000BA00BA00BA00BA00BA00BA00BA00BA0038
:1038C000BA00BA00BA00BC01BA00BA00BA00BA0025
:1038D000BA00BA00BA00BA00BA00BC015801BC0173
:1038E000190137011901002500E0013205EB8505BA
:1038F00000EB45051078303DA0F130010929F4D9DD
:103900002E28099202F101027FF46AAF099943F46B
:10391000806348781146A0F13006092E40F22181DB
:103920002A2800F02F8109920026013259E74446E7
:10393000C14501D809F1FF384B46424651460020A7
:10394000D84720461BB0BDE8F08FA0F16902D2B283
:103950000F2A3FD8012149F241079140394040F0F8
:10396000F3800A2A3DD0072A34D10A9D55F8042B4A
:10397000002A00F0138143F0210012AB1F460B9385
:1039800003E0202900F014811A4602F00F042346B8
:10399000092C94BF303337330F2A07F8013B01F16C
:1039A00001014FEA1213ECD802E100BF4D370010BD
:1039B000081000209D2A00100A99099851F8045B0C
:1039C0004078002DCDE90921BCBF43F002036D42D0
:1039D000013202E742464B46514608F10108D847FA
:1039E000D2E60A99002E51F8047B18BF3246387887
:1039F00008BF4FF0FF32002800F07B83BC18A446BC
:103A00003A4604E012F8014F002C00F03F81944543
:103A1000F8D16446E41B5A0540F12281B44228BF24
:103A2000344613F0020300F088820223CDE90A51E4
:103A300042461D46464408E04B465146D84717F8D3
:103A4000010F08F1010810B142464645F4D12B465A
:103A50000B990A9D002B40F041810A9194E6099947
:103A600048786C287FF4ECAE0A46887843F44073BB
:103A70000332E8E6099943F4007348780132E2E63C
:103A800009994878682800F0038143F080030132E7
:103A9000D9E6672800F0D980472800F0DC80452867
:103AA00000F0DB80CDE903530A9B0296073323F035
:103AB00007031C464246F4E802674B465146584607
:103AC000CDE900670A94FFF787FB80465CE646284D
:103AD00008BF43F02003CDE903530A9B0296073346
:103AE00023F007031C464246F4E802674B46514662
:103AF0005846CDE900670A94FFF70EF9804643E681
:103B000042464B465146252008F10108D8473BE67E
:103B10000A9A990702F1040408F1010640F1C680EF
:103B200010784B4642465146D847012D88BFA844DD
:103B300040F2BD8132464B46514620200136D847DF
:103B40004645F7D10A941FE66F2800F0818040F2C5
:103B50004882782800F090810A2723F01003BC46A1
:103B600041E0002606EB860600EB4600A0F1300699
:103B700011F8010FA0F13002092AF3D90A46099180
:103B800001322EE6DDE9092151F8046B907802320A
:103B900009920A91013226EAE67622E623F0100025
:103BA00013F4806240F021003FF4E7AE12AB0B93B8
:103BB0000B9B069000930823102005930023424698
:103BC000CDE9023001914B46514658460496FEF726
:103BD000B5FF0A958046D7E5582862D0622840F0A4
:103BE0008F800227BC4613F4806000F0DD8023F054
:103BF0000D0313F4007240F081810A990F1D13F434
:103C0000807140F037825C060A9A40F13B8112785D
:103C1000002A40F04E8123F01003002800F0498173
:103C2000114612AA0B92CDE90553CDE903C60191C5
:103C30000B9B4246009300235146029358464B4645
:103C4000FEF77CFF0A9780469EE543F4006329E770
:103C50000827BC46C7E743F4006343F0200321E78D
:103C600013F0020300F08E8102230A951E460D46D2
:103C700042464B465146D84717F8010F08F1010854
:103C80000028F5D1294633460A9DE3E6D41BC2E657
:103C90000A46887843F0C0030332D4E504468046E0
:103CA00046E6102743F02003BC469CE7012D40F276
:103CB000F880464608F1FF372F4432464B465146BE
:103CC00020200136D847BE42F7D10A9B32461878E9
:103CD00051464B46D847A8440A9455E54646A54266
:103CE0007FF6BBAEA844A8EB04080C4632464B4610
:103CF000514620200136D8474645F7D12146ACE64B
:103D000013F4806200F0BB804FF4806223F0110C4A
:103D10001CF400770A9B4AD11CF4807003F1040460
:103D200040F034811CF0400F40F0A3801CF0800F65
:103D300000F0D381B3F9001081EAE177A7EBE177D6
:103D4000BFB2CB0F002900F056813A4612A90F46A8
:103D5000DFF8D8E30B910A930C9501E020280FD0EF
:103D60001546AEFB0213DB0803EB8301A2EB410116
:103D70003031092D1A4600F1010007F8011BEDD87A
:103D80000A9B0C9DCDE9055CCDE9010304960B9BD4
:103D9000424600930A235146039358464B46FEF78A
:103DA000CDFE0A948046EFE423F00C0321E70733AD
:103DB00023F00703194608465B6850F8081BDF0F1D
:103DC0000A9051EA030062D1002A40F09F81134615
:103DD000114612AACDE90C7500201546CDE90E68F2
:103DE000DFF848E30B9201E020282DD05A1842F169
:103DF0000002AEFB027828F0030707EB9807D21BFE
:103E00001E469B1A61F100070C464FF0CC3101FBB6
:103E100003F10EFB0711A3FB0E731944052307F0F2
:103E20000108A8FB03389B180A2E03F130034FEA60
:103E3000570774F1000405F8013B00F1010047EA5F
:103E4000C1734FEA5101CFD2DDE90C75DDE90E688F
:103E50000B9B424600930A23CDE9055CCDE901079F
:103E6000049603934B4651465846FEF767FE80463C
:103E70008AE419780F4664E71027BC46B3E623F0BE
:103E8000100C45E71C064CBF12881268C0E60A46B3
:103E9000191E01DB13469CE75242134661EB4101B8
:103EA00097E713465146187842464B46D847B046E6
:103EB00048E613F0200F14BF4120612012ACA64643
:103EC0000B940A93A0F10A040C9502E0202912D069
:103ED0002A46B2FBFCF50CFB1520C3B2092803F1FE
:103EE00030008ABF1B19C3B2DBB262450EF8013B3A
:103EF00001F10101EAD20A9B0C9D94E60A9A07326D
:103F000022F00702516852F8084B8E460A9254EA92
:103F1000010276D123F01003002872D0002211464E
:103F200012AA0B92CDE905530B9B42460093002346
:103F3000CDE903C60191029394E7A54298BF0134ED
:103F40007FF674AD4FF48063CDE90A7505EB080286
:103F50001F460D46141B42464B465146202008F191
:103F60000108D847A045F6D13B460A9F2946387834
:103F70000B9D6C1C00283FF470AD002B3FF475AE18
:103F8000002353E5A542DFD801346EE61968CB0F54
:103F9000002900F0A88081EAE172A2EBE17212A987
:103FA0000846DFF888E10B910A930C9501E0202F79
:103FB0000FD01546AEFB0213DB0803EB8301A2EB27
:103FC00041013031092D1A4607F1010700F8011BA4
:103FD000EDD80A9B0C9DCDE9055CCDE901730496F3
:103FE000D5E6692823F0100C40F08C8013F4806231
:103FF0003FF48EAE88E6002A3FF4A8AE12AA0B92D8
:10400000C0E613F0200F14BF41226122002012A944
:104010000A3ACDE90E68CDE90C35CDF844B0064634
:104020008846754693460B91CDF840C003E0202E9C
:1040300017D004460D4629463A460023204601F093
:1040400097F8D2B2092A02F1300388BF02EB0B03C2
:10405000BC42DBB275F1000508F8013B06F1010630
:10406000E5D23146DDE90C35DDE910CBDDF83C80E9
:104070000E9E57E70A99096851B923F0100338B129
:1040800012A90B91CDE90553CDE903C60192CFE505
:1040900013F0200F14BF4120612012ACA6460B94F0
:1040A0000A93A0F10A040C9502E0202A12D02946B6
:1040B000B1FBFCF50CFB1510C3B2092803F130006D
:1040C0008ABF1B19C3B2DBB261450EF8013B02F196
:1040D0000102EAD20A9B0C9DD4E7196881EAE177D4
:1040E000A7EBE1772DE6002A3FF459AF12AA0B9215
:1040F00071E713F480640DD013F0020412D004466B
:104100004646ECE50A276346BC466CE512AB002048
:104110000B939DE613F002037FF4E0AD002D7FF4D6
:1041200013AF9AE4002D7FF40DAF96E4CDCCCCCC48
:104130000EB410B585B007AC54F8043B01464FF0FF
:10414000FF32009404480394FFF700FB05B0BDE87C
:10415000104003B0704700BF952A001010B5094BFE
:1041600084B01C684CB1034600914FF0FF3203A9A4
:104170000548A047012004B010BD00F04BF92046CF
:1041800004B010BD08100020112D001000BEFDE786
:10419000074A0346106838B1064903448B428CBF76
:1041A0004FF0FF3013607047034908461160F3E792
:1041B000F40F002000000820BCC1042008B5FFF760
:1041C000E5FF00BF38B5064C064DFEF7C5F9AC4219
:1041D00004D254F8043B9847AC42FAD338BD00BF30
:1041E000D0510010D45100100368084611461847FA
:1041F0002DE9F0411546427D07468846002A46D003
:10420000002D1DDD0B780A2B23D0012D4FF0000C63
:1042100018D04646012416F8012F21460A2A04F137
:10422000010422D0A542F6D165450BDC08EB05035D
:1042300013F8013CA3F10D03B3FA83F35B093B755B
:10424000BDE8F0813B68A5EB0C0108EB0C0098473A
:10425000ECE7037D002BD8D1036802210F48984773
:10426000012DE3D04FF0010CD3E716F8013C0D2BE4
:10427000D8D08C4508EB0C00A1EB0C0101DA3B68AF
:104280009847022105483B689847A446CAE7294653
:1042900040463B68BDE8F041184700BF5863001036
:1042A0002DE9F04782B00D4691461C460646FDF7C3
:1042B000B5FE4FF0FF3C6FF000472E4A821841F1E7
:1042C0000003944577EB03013CBF62463B462A4816
:1042D00000F05AFF6B1C804640D00CB3274F284B90
:1042E0001C68B4B1B9F1000F1CD1DFF89C9001E05B
:1042F000246974B12368002BFAD0D9F800300BB1CF
:104300009C42F5D120462A463146B8472469002C04
:10431000F0D1B8F1000F26D1284602B0BDE8F087F1
:10432000184FDCE74FF00A0ADFF85C9002E02469DE
:10433000002CEED02368002BF9D0D9F800300BB157
:10434000A342F4D12A4631462046B84701222046EE
:104350000DF107018DF807A0B847E8E7304600F0F7
:1043600085FD0546B9E7044800F006FF284602B07F
:10437000BDE8F08740420F00B80B0020F14100106B
:10438000E80F0020E9410010F00F002000207047E6
:10439000F0B583B006468DF80700FDF73FFE4FF0FD
:1043A000FF356FF00044174A821841F1000395422F
:1043B00074EB03013CBF23462A46134800F0E4FE99
:1043C000124B07461C689CB1114D01E024697CB179
:1043D0002368002BFAD02B680BB19C42F6D1204603
:1043E00001220DF10701FFF703FF2469002CEFD133
:1043F00017B9304603B0F0BD034800F0BDFE3046AB
:1044000003B0F0BD40420F00B80B0020E80F0020C1
:10441000F00F002038B5044600F028FD01230546C2
:104420001A4620462946FFF73BFF084B1C682CB173
:1044300063682BB198472469002CF9D1284638BD10
:104440002469002CF4D1284638BD00BFE80F0020B5
:1044500000F12F4000F56000030D022B0DD0012B61
:1044600005D0094A094801EB8301FDF799B8084ACC
:10447000064801EB8301FDF793B8064A034801EBB8
:104480008301FDF78DB800BF98540010BC0F0020C9
:10449000D8540010B45400102DE9F0470F460546DB
:1044A000FDF762F8012297F804A097F905C005F11D
:1044B0002F4EDFF8D4800EF5600E02FA0AF24FEAB2
:1044C0001E5EBCF1000F58F82E6002F1FF32CAF1F7
:1044D000200435DBA44503DC02FA0CF3334206D09A
:1044E0004FF0FF34FDF752F82046BDE8F087D5F8CD
:1044F0006831F979002B41D14B0731D4644602FA77
:104500000CF2164233D13968BAF1000F10D0674669
:1045100001EB4A0A31F8023B07F11209B3F5005FDB
:1045200038BF6344514507F1010745F82930F1D1FF
:10453000324348F82E20FDF729F82046BDE8F087E1
:10454000002C02DA13E0013C11D302FA04F33342E7
:10455000A446F8D1D5F86811FB7991B95B07CED59F
:104560006FF00A04FDF712F82046BDE8F0876FF0FF
:104570000804FDF70BF82046BDE8F087C907BDD554
:10458000EEE7D907BBD5EBE7A00F00202DE9F041FE
:10459000D0F868419DF81860121B1F2A38D84EF2D7
:1045A0009F044EF280054FF4003801EB410C002EC1
:1045B00018BF254600EBCC0404F5435400EBCC0CAB
:1045C000052BDCF8DC704FEA410EDCF8CC60C4F857
:1045D0000C800CD95401053B44F0A0540532052B46
:1045E000CCF8DC4002F01F02CCF8D850F2D871446D
:1045F00000EBC1010020520142EA8363C1F8DC30C4
:10460000C1F8D850C1F8DC70C1F8CC60BDE8F081C9
:104610006FF00400FAE700BFF0B5012504688D4093
:1046200024EA05040460B3B3D3E901561F68DC68CB
:1046300001EB410300EBC303C3F8C8704FEA410C20
:10464000C3F8D060C3F8CC50C3F8DC400CEB0103D6
:104650004FF0013500EBC30C4FF0004600EBC30EEA
:1046600001230EF5865E0C1D01F108078D40CEF882
:10467000106003FA04F4CEF8106002F01F028560A7
:10468000BB4000F5005004600EF1100E03600020E6
:10469000CCF8D820F0BD4FF480374FF440264FF4CB
:1046A000F83501EB410400EBC404C4F8C8704FEACC
:1046B000410CC4F8D060C4F8CC50C4F8DC30C5E775
:1046C00010B5054C82B001460F2300220094034828
:1046D000FCF792FF02B010BDFC540010B8C10420DA
:1046E000024B0146186800F00BB800BF680A0020B2
:1046F000024B0146186800F043BC00BF680A002066
:1047000001F10B03162B2DE9F04F074683B023D898
:10471000102900F2AF8000F0AFFA10251823022014
:10472000BA4E33445C68A3F10802944200F056810B
:104730006368384623F00303D4E902122344CA60B5
:1047400091605A68083442F001025A6000F09AFA07
:10475000204603B0BDE8F08F002B23F00705C0F220
:104760008980A94200F2868000F086FAB5F5FC7FC8
:10477000C0F07B826B0A00F08480042B00F262811F
:10478000AB0903F1390003F1380EC3009F4E3344E7
:10479000A3F1080C5C68A44507D10DE0002AE1688C
:1047A00080F216818C450C4606D0636823F0030323
:1047B0005A1B0F2AF2DD7046DFF8688234694445DF
:1047C00000F0F280636823F0030CACEB05030F2BC1
:1047D00000F37481002BC6E9048880F26381BCF584
:1047E000007FD6F804E080F0FF804FEADC0301226E
:1047F0004FEA5C1C013302FA0CF256F833104EEA11
:10480000020E06EBC302083AC6F804E0C4E902123D
:1048100046F83340CC6083104FF0010C0CFA03FCD7
:10482000F44534D81CEA0E0F07D120F003004FEAFC
:104830004C0C04301CEA0E0FF9D006EBC00A81467E
:10484000D646DEF80C300BE05A681C46DB6822F0D6
:104850000302511B0F2900F30181002980F2158109
:104860009E45F1D109F101090EF1080E19F0030F6F
:10487000E7D158E10C233B600024204603B0BDE89B
:10488000F08F4FF4007340204FF03F0E7EE7B46886
:10489000636823F00309A945A9EB050302D30F2B95
:1048A00000F385805A4B08201B6803F1100804EBC5
:1048B0000903009300F056FA564AA8448346136849
:1048C000013305D008F1FF384342804403EA080869
:1048D0004146384600F02AFAB0F1FF3F82464D4A81
:1048E00000F0078104EB0903834200F200814A4B88
:1048F0000BF1FF3C18684044186000F064811168B7
:10490000013100F06C8104EB0902AAEB02020244BF
:104910001A601AF00702CDE9002300F02781C2F1E6
:104920000802384692445A44D04408EA0C01521A0C
:1049300002EA0C0B594600F0F9F9421C019B00F009
:104940006A81A0EB0A0000EB0B08186848F001022E
:10495000B442C6F808A05844CAF80420186017D01A
:10496000B9F10F0F40F23E816168A9F10C024FF0DE
:10497000050C22F0070201F0010111430F2A6160CA
:1049800004EB0201C1E901CC00F24D81DAF8042008
:10499000224B54461968814238BF1860204B196871
:1049A000814238BF1860A6E0D6F804E033E7621908
:1049B00045F0010543F00103083444F8045C38462F
:1049C000B260536000F05EF9204603B0BDE8F08F9E
:1049D000A26823443846D1608A60B2E6DC68A3420C
:1049E0007FF4A6AE0230E7E6BCF5206F4FEA5C220A
:1049F00076D3142A00F2CD8002F15C035B32DB0037
:104A0000F118F3580839994211D1A5E06006002049
:104A1000440E002058060020140E00203C0E0020FA
:104A2000400E0020680600209B68994204D05A6816
:104A300022F003026245F7D8D968C4E902318C60DC
:104A4000DC60E8E6142B63D9542B00F2AB802B0B0F
:104A500003F16F0003F16E0EC30097E6D4F808C0AF
:104A60003846671945F001056560CCF80C30C3F88D
:104A700008C041F00103C6E90477C7E902887B60FA
:104A8000A150083400F0FEF8F7E622443846516899
:104A900041F00101516054F8082FD3609A6000F092
:104AA000F1F8EAE6A44438460834DCF8043043F070
:104AB0000103CCF8043000F0E5F8DEE6621943F0BB
:104AC000010145F0010538466560C6E90422C2E9E6
:104AD0000288516044F80C30083400F0D3F8CCE67A
:104AE0004FEA9C1202F139033832DB0088E7B44206
:104AF00062D0B468626822F00308A845A8EB0503F9
:104B000002D30F2B3FF753AF384600F0BBF8B3E6A4
:104B100003F15C0003F15B0EC30037E65AF8083975
:104B2000534540F0A08010F0030F00F1FF30F5D1A5
:104B3000736823EA0C0373604FEA4C0C0CF1FF32EC
:104B40009A4204D3A3E64FEA4C0C09F104091CEA8B
:104B5000030FF8D0484670E692104FF0010C0CFAA3
:104B600002F24EEA020EC6F804E066E70AEB08021B
:104B7000384602EA0C02ABEB020B0BEA0C0B59466F
:104B800000F0D4F8431C019B7FF4DBAEDDF800B0ED
:104B9000DBE6542A2AD84FEA1C3202F16F036E3248
:104BA000DB002DE7B3F5AA7F2AD8EB0B03F17800E1
:104BB00003F1770EC300E9E52E4B0BF1FF3C1868BB
:104BC000404418609BE61AEA0C0F7FF498AEC84484
:104BD000D6F808A048F00102CAF80420D8E6C2F8C6
:104BE00000A096E60123CAF804308DE7B2F5AA7F4B
:104BF00024D84FEADC3202F178037732DB00FFE69B
:104C000040F25452934224D8AB0C03F17D0003F1DF
:104C10007C0EC300BAE5009A4FF0000B083A9044AE
:104C2000A8EB0A0891E6384604F10801009300F069
:104C3000A7F9009BD6F808A01868A7E640F25453DD
:104C40009A420CD84FEA9C4202F17D037C32DB0091
:104C5000D6E64FF47E737F204FF07E0E96E54FF43C
:104C60007E737E22CCE6736866E7E80805F10803E8
:104C700056E500BF140E0020014800F06FB800BFD9
:104C8000100E0020014800F06BB800BF100E00208D
:104C9000830730B546D08418844604E003F8011B2E
:104CA0009D0704D09C46A4456346F7D130BD013A28
:104CB0000244A2EB0C02032A29D9CCB20F2A04EB3E
:104CC000042404EB04442FD9A2F1100C03F11005C5
:104CD0002CF00F0CAC44C3E90044C3E90244103388
:104CE0006345F8D112F00C0F02F00F0E18D02EF021
:104CF000030CAEF104051A469C4442F8044B62458D
:104D0000FBD125F0030404330EF003022344002AF0
:104D1000CCD0C9B21A4403F8011B9342FBD130BD79
:104D20007246F4E70346C6E79646E0E738B5002248
:104D3000064D044608462A60FFF72AFA431C00D0B5
:104D400038BD2B68002BFBD0236038BDEC0F002052
:104D5000014B1868704700BF680A0020704700BF09
:104D6000704700BF082802D14FF48050704708B543
:104D7000FFF7EEFF162203464FF0FF301A6008BD22
:104D8000844641EA000313F0030349D1403A23D398
:104D90000B6803604B6843608B688360CB68C360BB
:104DA0000B6903614B6943618B698361CB69C361A3
:104DB0000B6A03624B6A43628B6A8362CB6AC3628B
:104DC0000B6B03634B6B43638B6B8363CB6BC36373
:104DD00040304031403ADBD230320BD30B680360B5
:104DE0004B6843608B688360CB68C36010301031C0
:104DF000103AF3D20C3205D351F8043B40F8043B8F
:104E0000043AF9D2043208D0D2071CBF11F8013B92
:104E100000F8013B01D30B8803806046704700BF58
:104E2000082A13D38B07B1D010F00303AED0C3F11F
:104E30000403D21ADB071CBF11F8013B00F8013B49
:104E4000A4D331F8023B20F8023B9FE7043AD9D3C0
:104E5000013A11F8013B00F8013BF9D20B780370DD
:104E60004B7843708B7883706046704720F0030165
:104E700010F00300C0F1000051F8043B00F1040CF5
:104E80004FEACC0C6FF000021CBF22FA0CF2134365
:104E90004FF0010C4CEA0C2C4CEA0C4CA3EB0C022E
:104EA00022EA030212EACC1204BF51F8043B043098
:104EB000F4D0C2F1000102EA0102B2FA82F2C2F1B8
:104EC0001F0200EBD20070472DE9F8430646DFF8D9
:104ED000AC8008208946FFF745FF05463046FFF7BE
:104EE000CBFED8F808305F6827F00307A7F111045C
:104EF000A4EB09042C44B4FBF5F4013C05FB04F4D9
:104F0000A54208DC00213046FFF710FFD8F8083032
:104F10003B44984205D03046FFF7B4FE0020BDE880
:104F2000F88361423046FFF701FF01300FD03F1B8D
:104F3000104AD8F80830304647F001075F60136820
:104F40001B1B1360FFF79EFE0120BDE8F8830021C4
:104F50003046FFF7EBFED8F80820831A0F2BDADD76
:104F600043F0010303495360034B1B68C01A0860F8
:104F7000D1E700BF140E0020580600206006002074
:104F800000295AD0F8B50C460746FFF775FE734D59
:104F900054F804CCA4F10802A8682CF001030CF02A
:104FA000010ED1184E68884226F003067CD088197D
:104FB0004E60406800F00100BEF1000F2ED154F8A1
:104FC000084C05F1080C121B23449468644560D01A
:104FD000D2F80CE0C4F80CE0CEF8084000287DD0F0
:104FE00043F0010050600B60B3F5007F2ED25809EA
:104FF000D9080123834068680131034355F8310023
:105000006B6005EBC103083BC2E9020345F83120A0
:10501000C2603846BDE8F840FFF734BE70B933448B
:1050200005F1080C886843F0010460456ED0C9683A
:10503000C16088605460D350D6E770474CF00101DE
:10504000B3F5007F44F8041CD350D0D3B3F5206FE0
:105050004FEA532144D2990901F1390001F1380492
:10506000C100681869580838884203D155E089683A
:10507000884204D04C6824F003049C42F7D8C868E6
:10508000C2E9021082603846CA60BDE8F840FFF706
:10509000F9BD80BB1E44D1E90213CB60996046F094
:1050A000010353609651B4E71E44BEF1000F07D1CF
:1050B00054F8083CD21A1E44D2E90213CB6099601E
:1050C00046F001035360264BAA601B68B342A0D888
:1050D000244B38461968FFF7F7FE9AE73344A1E7F7
:1050E00014290DD954291FD8190B01F16F0001F1B2
:1050F0006E04C100B5E743F0010050600B6088E723
:1051000001F15C0001F15B04C100AAE7C5E90422DA
:10511000C2E902CC5460D3507BE7A4100123A34022
:105120006C6823436B60ABE7B1F5AA7F06D8D90B57
:1051300001F1780001F17704C10092E740F2545088
:10514000814206D8990C01F17D0001F17C04C10077
:1051500087E74FF47E717E2483E700BF600600205E
:105160005C060020440E0020F8B500BF00000000DF
:105170005FF800F0A10200205FF800F06502002057
:105180005FF800F0110100205FF800F0FD01002041
:105190000526001079250010AD2500109926001075
:1051A000E5250010FD2400102D260010E924001034
:1051B0009117001031260010091B0010492500101E
:1051C00019260010C925001091160010B9160010FC
:0451D00011020010B8
:1051D80020202020202020202030202020202020B7
:1051E8002020203120202020202020202032202094
:1051F8002020202020202033202020202020202094
:10520800203420202020202020202035202020206D
:105218002020202020362020202020202020203759
:105228000000000031323334353637383930313206
:105238003334353637383930313233343536373818
:105248003930313233343536373839303132333416
:1052580035363738393031323334353637383930F6
:1052680031323334353637383930313233343536F4
:10527800373839300000000054656C61206E756D58
:1052880065726F203120636F723A20005B256420BD
:105298002D202564000000005D0000005379737420
:1052A800656D20636C6F636B206F66202575206BBE
:1052B800487A2063616E6E6F74206265206578613C
:1052C80063746C79206163686965766564000000C1
:1052D800626C696E6B20696E74657276616C3A20D7
:1052E800256400005061756C6F2064612073696CDF
:1052F80076612028632920323032352D323032361B
:10530800206D6172636F2D313620636F6D70696C2B
:105318006174696F6E203130312E2E2E0A00000024
:105328005061756C6F2064612073696C7661202808
:10533800632920323032352D32303236206D617299
:10534800636F2D313720636F6D70696C6174696F9D
:105358006E203130312E2E2E0A0000005061756CFF
:105368006F2064612073696C76612028632920327C
:105378003032352D32303236206D6172636F2D3107
:105388003920636F6D70696C6174696F6E2031309C
:10539800312E2E2E0A0000005061756C6F2064615A
:1053A8002073696C76612028632920323032352DCC
:1053B80032303236206D6172636F2D323020636F68
:1053C8006D70696C6174696F6E203130312E2E2ECC
:1053D8000A000000466F6E742038783136000000ED
:1053E8000A2A2A2A2050414E4943202A2A2A0A00FA
:1053F8000A000000486172647761726520616C611F
:10540800726D20256420616C726561647920636C1B
:1054180061696D656400000048617264206173739E
:10542800657274004F7574206F66206D656D6F72BC
:105438007900000052656C6561736500626F6F7476
:10544800325F77323571303830000000302E31004D
:10545800322E322E300000007069636F3200000077
:105468007667615069636F32000000004D617220F9
:105478003230203230323600666E692B0000000070
:10548800666E69006E616E00666E692D0000000030
:1054980050494F203020534D20256420616C72659F
:1054A80061647920636C61696D65640050494F20BF
:1054B8003220534D20282564202D20382920616C66
:1054C800726561647920636C61696D6564000000D0
:1054D80050494F203120534D20282564202D203459
:1054E8002920616C726561647920636C61696D65FE
:1054F800640000004E6F20444D41206368616E6E69
:10550800656C732061726520617661696C61626C9B
:10551800650000002455001005FF01010D200D4015
:1055280001E08D2000E000003855001009FF01005F
:10553800A08047A000E022A0C123A08004650463E6
:1055480045000000545500100EFF0100A08027A060
:10555800C02001C0420049E0C020860000E0C02011
:10556800C0205FE0C0388C007855001009FF0100AA
:10557800A08027A0420000FF00FF00FF01FF01EC10
:1055880000C1000000000000000000000000000052
:1055980000000000FFFF0000000000000000000005
:1055A8000000000000000000000000FFFF000000F5
:1055B80000000000C0C0C0C0C0C0C0C0C0C0C0C0E3
:1055C800C0C0C0C0181818181818181818181818B3
:1055D80018181818C0C0C0C0C0C0C0C00000000063
:1055E800000000000000000000000000C0C0C0C0B3
:1055F800C0C0C0C000000000000000F8F81818186B
:1056080018181818000000000000001F1F181818AC
:1056180018181818181818181818181F1F0000003C
:105628000000000018181818181818F8F8000000DA
:105638000000000018181818181818FFFF18181874
:105648001818181818181818181818FFFF0000004C
:105658000000000000000000000000FFFF181818FC
:105668001818181818181818181818F8F8181818F2
:1056780018181818181818181818181F1F18181894
:10568800181818180080C0E0F0F8FEF8F0E0C080A4
:10569800000000000002060E1E3EFE3E1E0E060220
:1056A800000000000000183C7E1818187E3C180006
:1056B800000000000000666666666666660066664C
:1056C8000000000000007FDBDBDB7B1B1B1B1B1BC0
:1056D80000000000007CC660386CC6C66C380CC67A
:1056E8007C0000000000000000000000FEFEFEFE3E
:1056F800000000000000183C7E1818187E3C1800B6
:10570800000000000000183C7E1818181818181817
:10571800000000000000181818181818187E3C1807
:10572800000000000000000000180CFEFE0C18002D
:105738000000000000000000003060FE7E3018000D
:1057480000000000000000000000C0C0C0FE000013
:105758000000000000000000002466FF662400002E
:1057680000000000000000001038387C7CFEFE00BD
:105778000000000000000000FEFE7C7C38381000AD
:105788000000000000000000000000000000000011
:10579800000000000000183C3C3C181818001818BD
:1057A800000000000066666624000000000000009B
:1057B800000000000000006C6CFE6C6C6CFE6C6CF1
:1057C8000000000018187CC6C2C07C060686C67C8D
:1057D8001818000000000000C2C60C183060C68609
:1057E800000000000000386C6C3876DCCCCCCC763D
:1057F80000000000003030306000000000000000B1
:105808000000000000000C18303030303030180C28
:1058180000000000000030180C0C0C0C0C0C1830A8
:10582800000000000000000000663CFF3C6600002D
:1058380000000000000000000018187E1818000082
:105848000000000000000000000000000018181808
:1058580030000000000000000000007E0000000092
:105868000000000000000000000000000000181800
:10587800000000000000000002060C183060C08024
:105888000000000000007CC6C6CEDEF6E6C6C67C78
:105898000000000000001838781818181818187E2A
:1058A8000000000000007CC6060C183060C0C6FE70
:1058B8000000000000007CC606063C060606C67C02
:1058C8000000000000000C1C3C6CCCFE0C0C0C1EF4
:1058D800000000000000FEC0C0C0FC060606C67C32
:1058E8000000000000003860C0C0FCC6C6C6C67C08
:1058F800000000000000FEC606060C1830303030EC
:105908000000000000007CC6C6C67CC6C6C6C67CB1
:105918000000000000007CC6C6C67E0606060C789D
:10592800000000000000000018180000001818000F
:1059380000000000000000001818000000181830CF
:1059480000000000000000060C18306030180C063B
:105958000000000000000000007E00007E00000043
:10596800000000000000006030180C060C183060C1
:105978000000000000007CC6C60C18181800181893
:105988000000000000007CC6C6C6DEDEDEDCC07C8F
:1059980000000000000010386CC6C6FEC6C6C6C6A9
:1059A800000000000000FC6666667C66666666FCB1
:1059B8000000000000003C66C2C0C0C0C0C2663C17
:1059C800000000000000F86C6666666666666CF8A3
:1059D800000000000000FE6662687868606266FE8B
:1059E800000000000000FE6662687868606060F091
:1059F8000000000000003C66C2C0C0DEC6C6663AB1
:105A0800000000000000C6C6C6C6FEC6C6C6C6C69A
:105A18000000000000003C18181818181818183C46
:105A28000000000000001E0C0C0C0C0CCCCCCC7838
:105A3800000000000000E666666C78786C6666E632
:105A4800000000000000F06060606060606266FE58
:105A5800000000000000C3E7FFFFDBC3C3C3C3C3EC
:105A6800000000000000C6E6F6FEDECEC6C6C6C6CA
:105A78000000000000007CC6C6C6C6C6C6C6C67CF6
:105A8800000000000000FC6666667C60606060F0F4
:105A98000000000000007CC6C6C6C6C6C6D6DE7CAE
:105AA8000C0E00000000FC6666667C6C666666E6A6
:105AB8000000000000007CC6C660380C06C6C67C24
:105AC800000000000000FFDB991818181818183C8F
